:020000041000EA
:1000000000B5324B212058609868022188439860DF
:10001000D860186158612E4B002199600221596106
:100020000121F02299502B49196001219960352056
:1000300000F044F80222904214D00621196600F024
:1000400034F8196E01211966002018661A6600F04E
:100050002CF8196E196E196E052000F02FF8012189
:100060000842F9D1002199601B49196000215960AB
:100070001A491B48016001219960EB211966A021F2
:10008000196600F012F800219960164914480160C1
:100090000121996001BC002800D000471248134993
:1000A000086003C880F30888084703B5996A0420EC
:1000B0000142FBD001200142F8D103BD02B5186610
:1000C0001866FFF7F2FF186E186E02BD00000240BE
:1000D000000000180000070000035F00212200005C
:1000E000F4000018222000A00001001008ED00E03C
:1000F00000000000000000000000000074B24E7A12
:1001000000200420F7010010C3010010C5010010F9
:10011000C1010010C1010010C1010010C101001097
:10012000C1010010C1010010C1010010C701001081
:10013000C1010010C1010010C9010010CB01001065
:10014000CD010010CD010010CD010010CD01001037
:10015000CD010010CD010010CD010010CD01001027
:10016000CD010010CD010010CD010010CD01001017
:10017000CD010010CD010010CD010010CD01001007
:10018000CD010010CD010010CD010010CD010010F7
:10019000CD010010CD010010CD010010CD010010E7
:1001A000CD010010CD010010CD010010CD010010D7
:1001B000CD010010CD010010CD010010CD010010C7
:1001C00000BE00BE00BE00BE00BE00BEEFF3058054
:1001D000103800BEF2EB88718C810110AC810110E7
:1001E0003402001090A31AE700201F49086006C8D7
:1001F00081F3088810471D48006800282FD10DA4FE
:100200000ECC002902D000F012F8F9E71849194A7B
:10021000002000E001C19142FCD1174988471749ED
:1002200088471749884700BEFDE701C901C29A42C5
:10023000FBD37047AC810110C0000020E41B0020FC
:10024000D09C01100000042000000420D09C01106C
:10025000001004200010042000000000704709482E
:1002600006F07AF80047000008ED00E0000000D03A
:10027000E81B0020802F0020754B0010F91E001095
:100280009D4C00105756000006005250ABB360530F
:100290001842011006005250861C03023842011019
:1002A000060052505422A29D4C42011005005250AB
:1002B000DE65F468D09C0110F8B5C0460448054BD3
:1002C00010B5834203D0044B002B00D0984710BDDB
:1002D000E41B0020E41B0020000000000648074942
:1002E000091A8B10C90FC91810B5491003D0044B57
:1002F000002B00D0984710BDE41B0020E41B002019
:100300000000000010B5074C2378002B09D1FFF73F
:10031000D5FF054B002B02D0044800E000BF0123AD
:10032000237010BD901E002000000000A83D0110A9
:10033000054B10B5002B03D00449054800E000BF71
:10034000FFF7CCFF10BDC04600000000941E002047
:10035000A83D0110002100B583B000910AF084FB94
:1003600003B000BD10B5682009F058FE002301223B
:10037000C3654433C25410BD902301229B0070B565
:10038000C5182833C3181A70040028000BF02CFB82
:10039000EB68002B06D09A239B0001222800E1582D
:1003A0000BF0CAF870BDC04670B50400094B81342B
:1003B000FF34A362050020000BF016FBE368002B5E
:1003C00006D0D4235B0001222000E9580BF0B4F8DA
:1003D00070BDC046A83D0110F0B5DE4657464E46FA
:1003E0004546E423E0B5C35889B002938C235B00F3
:1003F000C35804000593C8239B00C3580793C02328
:100400005B009B4630339A463033994630339846EA
:10041000B433C6182C33C518B023C35883441B8D7E
:100420008244814480441800F538FF38069306F072
:10043000F5FB664906F0B1FBFA218905071C06F0B9
:1004400095FB0390FA20391C800506F08CFB039B7A
:100450000490B36230000BF0C7FAF368002B06D0AB
:10046000BB239B0001223000E1580BF065F8049B90
:100470002800AB620BF0B8FAEB68002B06D0C6235D
:100480009B0001222800E1580BF056F8504F112133
:10049000069B504A380005F0FBFE5B4658469F62BB
:1004A0000BF0A2FA5B46DB68002B06D0D4235B007E
:1004B00001225846E1580BF03FF8039806F0D6FBAE
:1004C000454F00900191454A1121380005F0E0FEAA
:1004D000534650469F620BF087FA5346DB68002B69
:1004E00006D0EC235B0001225046E1580BF024F8C3
:1004F000049806F0BBFB3A4F00900191394A112154
:10050000380005F0C5FE4B4648469F620BF06CFA7A
:100510004B46DB68002B06D082239B000122484615
:10052000E1580BF009F828220599029B2E4F9B5C9D
:100530008A5C3800112100922C4A05F0A9FE43463E
:1005400040469F620BF050FA4346DB68002B06D012
:100550008E239B0001224046E1580AF0EDFF28233C
:10056000029AD25C002A03D1059AD35C002B26D0D4
:100570001F4B3000E318A361012323770023B362EC
:100580000BF032FAF368002B06D0BB239B0001224C
:100590003000E1580AF0D0FF00232800AB620BF0D6
:1005A00023FAEB68002B06D0C6239B00012228000B
:1005B000E1580AF0C1FF079B9A6A0E4B1A6009B016
:1005C000F0BCBB46B246A946A046F0BDE2B16039D8
:1005D000B8240020B03D0110F4240020B83D0110E3
:1005E00008250020C43D011030250020D03D011019
:1005F000C80900003C2F0020C8239B00C358F0B559
:100600004E469946E423DE4645465746C358E0B574
:100610009B468C235B00C35885B00393C0235B00CB
:100620009846804442464533FF33C6182C33C518DC
:10063000614B07009362040040460BF0D5F9434636
:10064000DB68B137FF37002B06D0D4235B000122D3
:100650004046E1580AF070FF584B9A46584B1968CB
:1006600098464B46986A06F07EFA06F0FFFA554A1D
:10067000009001911121504605F00AFE53463800C2
:10068000BB620BF0B1F9FB68002B06D0EC235B00DA
:1006900001223800E1580AF04FFF4B4B3000B362A3
:1006A0000BF0A2F9F368002B06D0BB239B000122BC
:1006B0003000E1580AF040FF434B2800AB620BF0DA
:1006C00093F9EB68002B06D0C6239B00012228007B
:1006D000E1580AF031FF434619684B46986A06F024
:1006E00042FAFF21890506F08FFA002806D105B0ED
:1006F000F0BCBB46B246A946A046F0BD84239B0091
:10070000E718324928225B468A4603999B5C8A5C3B
:100710005046112100922E4A05F0BAFD534638008A
:10072000BB620BF061F9FB68002B06D08E239B00A7
:1007300001223800E1580AF0FFFE28235A46D25C15
:10074000002A2ED0039AD35C002B31D1013B2362C7
:100750004A464346926A30001A600023B3620BF0A7
:1007600043F9F368002B06D0BB239B000122300025
:10077000E1580AF0E1FE00232800AB620BF034F9E7
:10078000EB68002B06D0C6239B0001222800E1580D
:100790000AF0D2FE9E231B01E318A36101232377F5
:1007A000A5E7039AD35C002B02D001232362CFE795
:1007B00000232362CCE7C046E03D0110E024002086
:1007C0003C2F0020F03D0110CDCC4C3E1C250020DC
:1007D000D03D0110B023F0B5C64606000500C7584D
:1007E000BD3300B5FF33C35881369846204BFF36E2
:1007F000B362040082B030000BF0F6F8F368B13554
:10080000FF35002B06D0D4235B0001223000E158D5
:100810000AF092FE4346996A164B174E186806F086
:10082000A2F906F023FA154A009001911121300037
:1008300005F02EFD2800AE620BF0D6F8EB68002B19
:1008400006D0EC235B0001222800E1580AF074FE78
:10085000FA233A8D5B009A4205D99B231B01E318CA
:10086000A3610123237702B080BCB846F0BDC04627
:10087000F83D0110382F0020A4240020003E011074
:10088000B023F0B5C64606000500C758BD3300B515
:10089000FF33C35881369846204BFF36B3620400BD
:1008A00082B030000BF0A0F8F368B135FF35002BB3
:1008B00006D0D4235B0001223000E1580AF03CFE50
:1008C0004346996A164B174E186806F04CF906F025
:1008D000CDF9154A009001911121300005F0D8FCA6
:1008E0002800AE620BF080F8EB68002B06D0EC23FA
:1008F0005B0001222800E1580AF01EFEFA233A8D1F
:100900005B009A4205D99B231B01E318A3610123D5
:10091000237702B080BCB846F0BDC046143E01103B
:10092000382F002090240020003E01109B239B00C4
:10093000C358F0B54F469946C0234646D6465B009D
:100940009846C0B507004533FF33C6182C33C51889
:10095000454B0400B36282B0804430000BF044F891
:10096000F368B137FF37002B06D0BB239B00012271
:100970003000E1580AF0E0FD3C4B2800AB620BF080
:1009800033F8EB68002B06D0C6239B000122280019
:10099000E1580AF0D1FD4246354B404693620BF0D8
:1009A00023F84346DB68002B06D0D4235B000122EA
:1009B0004046E1580AF0C0FD2E4B9A462E4B984611
:1009C0004B46996A4346186806F0CDF806F04EF992
:1009D0002A4A009001911121504605F059FC5346D6
:1009E0003800BB620BF000F8FB68002B06D0EC234C
:1009F0005B0001223800E1580AF09EFD4B46996ADF
:100A00004346186806F0AFF81D4906F0FDF80028C7
:100A100005D102B0E0BCBA46B146A846F0BDA1235C
:100A20001B01E318A36101232377164B3000B36247
:100A30000AF0DAFFF368002B06D0BB239B000122EB
:100A40003000E1580AF078FD0F4B2800AB620AF045
:100A5000CBFFEB68002BDCD0C6239B0001222800D3
:100A6000E1580AF069FDD4E76666E63E6666E6BED2
:100A70001C3E01107C240020382F0020003E011075
:100A80000000C842CDCCCC3ECDCCCCBEC8239B0010
:100A9000C358F0B557469A469B239B00C3584E4611
:100AA0004546DE469946C023E0B55B000700984600
:100AB0004533FF33C6182C33C518036AB137040019
:100AC00083B08044FF375A1C6CD0012B68D0744B24
:100AD0004246404693620AF087FF4346DB68002B9C
:100AE00006D0D4235B0001224046E1580AF024FDE1
:100AF0006C4B9B466C4B196898465346986A06F0B7
:100B000032F806F0B3F8694A009001911121584675
:100B100005F0BEFB5B463800BB620AF065FFFB6870
:100B2000002B06D0EC235B0001223800E1580AF0CC
:100B300003FD5F4B3000B3620AF056FFF368002BF1
:100B400006D0BB239B0001223000E1580AF0F4FCE0
:100B5000574B2800AB620AF047FFEB68002B06D02A
:100B6000C6239B0001222800E1580AF0E5FC434619
:100B700019685346986A05F0F6FF4E4906F044F8A6
:100B8000002806D0236A5A1C3CD0012B62D0002BCF
:100B90000AD003B0F0BCBB46B246A946A046F0BDA1
:100BA000454B95E7454B93E700233000B3620AF0CD
:100BB0001BFFF368002B06D0BB239B0001223000F3
:100BC000E1580AF0B9FC00232800AB620AF00CFFE0
:100BD000EB68002B06D0C6239B0001222800E158B9
:100BE0000AF0AAFC4B4620009A6A354B24301A6062
:100BF0000023344AFFF7AEFB334BE318A361012314
:100C00002377C6E7314B3000E318A3610123237734
:100C10002F4BB3620AF0E8FEF368002B06D0BB232B
:100C20009B0001223000E1580AF086FC294B280085
:100C3000AB620AF0D9FEEB68002B06D0C6239B00FE
:100C400001222800E1580AF077FC4B469A6A1C4BB7
:100C50001A609EE7204B3000B3620AF0C5FEF368CD
:100C6000002B06D0BB239B0001223000E1580AF084
:100C700063FC1A4B2800AB620AF0B6FEEB68002B4F
:100C800006D0C6239B0001222800E1580AF054FC3C
:100C9000A1231B01E318A36101232377D5E7C046F5
:100CA000343E0110CC2400203C2F0020F03D0110E8
:100CB000CDCC4C3E0000E040283E0110203E01100B
:100CC000382F002000943577280A0000F80900002A
:100CD0003333B3BE3333B33ECDCCCC3ECDCCCCBE20
:100CE00010B504000D4B2430E35C5A1E934103758C
:100CF0000B4BE15800290FD00B685A1E9341DBB211
:100D00002200443213700AF0C7FCA4231B01E3182D
:100D1000A3610123237710BD0023F1E7F907000049
:100D2000CC070000F0B5DE4657464E464546E0B5D6
:100D3000FD4883B009F072F9F823DB00C318C363E0
:100D40000300503383643433C3670200A823006474
:100D50004067B832C0500833C2502C33C0503432D0
:100D60000833C2502C33C05034320833C2502C33B5
:100D7000C05034320833C25002222C33C0504933A1
:100D80005242FF33C250A523DB009C46AC2384446F
:100D900067469B00C750B223DB009846AD238044D2
:100DA00041469B00C150BF23DB009C46AE238444D8
:100DB00061469B00C150D923DB00C118AF239B00C3
:100DC000C1500C3BC4182C3BC450A9240023A400E0
:100DD000A22503510424AD00445194354251643599
:100DE00042518B22D2008618F03A86505932FF3297
:100DF0009146DB2281444D46920085500432875053
:100E000000974746043287506746043287500432C1
:100E10008150DA2189004118403A0195815006211C
:100E2000203283501C3A815089465032BF4983504A
:100E3000083A81500432805048328350BC49043211
:100E400083500C328150FE25043283500122B94F69
:100E5000AD004251083D475104354051B64D8C27F5
:100E6000435104354351B54DB54A415104354351C1
:100E70000225FF00C551083FC2519B22B14F12010C
:100E8000C051B14FC3510437C351B04FC15187183E
:100E90009722D20087501032140003220251083CDE
:100EA000A246AB4CA34654465A460251A94C0051A7
:100EB000A94C035104340351A84C0151A84CA3463A
:100EC000A42483445A46E4000251042210340251FF
:100ED000083CA246A34CA34654465A460251A24C93
:100EE0000051A24C035104340351A14C01519E24E2
:100EF0002401A346B12483445A46E400025110342D
:100F0000A2460524A34654465A460251083CA2462E
:100F1000984CA34654465A460251974C0051974C60
:100F2000035104340351964C0151964CA346BE2400
:100F300083445A46E40002514A4610340251083CA8
:100F4000A146914CA2464C46524602518F4C00514C
:100F50008F4C0351043403518E4C0151A1242401C0
:100F6000A246CB2482445246E40002511034A146EA
:100F70000724A2464C4652460251083CA146864CE4
:100F8000A2464C4652460251844C0051844C0351B7
:100F900004340351834C0151834CA246D82482442B
:100FA0005246E40002511034A1460824A2464C46A1
:100FB00052460251083CA1467C4CA2464C46524641
:100FC00002517B4C012200517A4C035104340351ED
:100FD000794C0151A42109018946E52181444C46FF
:100FE000C900445075494350E22189008946EE21E9
:100FF0008144C9004C468946814444504C4670495E
:101000004450043142506F494254FC2189008946C2
:10101000F72181444C46C90044506B4943500C3180
:10102000894681444C4669494450043142506849DC
:101030004354684943509539FF398946A131814469
:10104000FF314C468946814444504C4662494450E5
:1010500004240431425018314354303943505F491D
:10106000436243505E4942505E49023243505E49FA
:10107000445044465D4943505D4946505D494450A3
:101080006446043144505A498C46844464465A4963
:101090004450043142505949019A455058494350EF
:1010A000584946505849425056498C4684446446F3
:1010B000564944500124043145505549445055493E
:1010C00043500C3146505449425096225349120124
:1010D000861846505249534A45501839445052498F
:1010E000009D43505149524E455045185149455075
:1010F000043144500421815002009B210C3209012B
:1011000042504D4C4D490025445000244C49411853
:101110000C604D609C2109014354114942504949DA
:101120004650043141188FE0580A0000790300103E
:101130003C3E0110A90300103C0400004C040000D8
:10114000D90300105C040000A4040000B4040000F3
:10115000F9050010C40400000C0500001C05000087
:10116000C80900008D0A00102C050000740500005D
:1011700084050000D507001094050000DC05000080
:10118000EC050000F809000081080010FC050000D3
:101190004406000054060000E10C00106406000044
:1011A000AC060000BC060000280A00002D09001053
:1011B000CC060000140700002407000064070000AC
:1011C000440700004C070000AC0700008C0700003B
:1011D00094070000F4070000D40700003C0800005A
:1011E000080800007C08000048080000BC08000057
:1011F000C8080000CC0800009C0800008808000017
:101200000C090000180900001C090000EC0800008F
:10121000D8080000540900006409000034090000E7
:1012200038090000680900009C090000A8090000B6
:10123000483E01107C090000403E0110B409000046
:10124000B8090000CC0900000C604D6023494354EC
:1012500008314250224E234946502349234E41181B
:101260000C604D609F21090143542149425021499E
:101270004650043141180C604D601F491F4E4354C5
:10128000083142501E4946501E491F4E41180C60FD
:101290004D60A221090143541C4942501C4946504B
:1012A000043141180C604D601A49435408314250D2
:1012B000194A1A4981501A4A821814605560A522A9
:1012C00012018354C360076147618361037703B0F0
:1012D000F0BCBB46B246A946A046F0BDD809000006
:1012E000583E0110E4090000E8090000683E0110C2
:1012F000F8090000FC090000080A0000743E011013
:10130000140A0000180A0000803E0110280A00009C
:101310002C0A0000380A0000440A00008C3E01102C
:10132000480A0000036A70B59C6A0021201C05F081
:1013300063FCFE21431E9841640064080500890592
:10134000201C05F061FC002805D007482900012277
:101350000CF038FA70BD0549201C05F01EFC05F0A4
:101360007FFC80B2F2E7C046FF0F000000F07F452F
:10137000436D70B59C6A0021201C05F03DFCFE21E8
:10138000431E98416400640805008905201C05F08F
:101390003BFC002805D00748290000220CF012FA77
:1013A00070BD0549201C05F0F8FB05F059FC80B222
:1013B000F2E7C046FF0F000000F07F4510B50120A6
:1013C0000CF0D2F910BDC046A62070B5800008F020
:1013D00025FE030028330362343343658023C06451
:1013E0009022C0500023F8242D498350083A8150A0
:1013F00004328050483283502A49043283500C32E0
:10140000815004328350284DE73A0251083C05517F
:1014100002250434005148340351043403510C3480
:1014200001510434035110340551204D083C05513D
:101430000434005148340351043403510C34015135
:10144000DC210400490043508834483144500C39B1
:1014500043500C3144182C3944500431425004316B
:101460004354113C60314350FF3C0C31445044180C
:101470002C3944500431822442500421A4000151EB
:101480007C3403510400A42359349B00FF34C4501E
:10149000C4182C3BC4500433C250183BC15070BD1B
:1014A000BD1300103C3E01102513001071130010F5
:1014B000942010B5400008F0B1FD0300283303620A
:1014C0008E2300225B00C064C250343B0132C25004
:1014D00010BDC046F0B5070004000600050087B047
:1014E00003A919480CF0F6F8039B5437E36738005A
:1014F0000AF07AFA236E8436B435002B04D0012228
:101500003800E16F0AF018F8049B3000B3620193D1
:101510000AF06AFAF368002B05D0AC2301223000F0
:10152000E1580AF009F8059B2800AB620AF05CFA62
:10153000EB68002B05D0DC2301222800E15809F0DC
:10154000FBFF07B0F0BDC046F82D0020054B10B5DD
:101550001A78002A00D010BD013203481A700CF02E
:101560006FF8F8E7712F0020F82D0020922070B559
:10157000800008F053FD030028330362F0220023AB
:10158000AC242049C0648350083A81500432805012
:10159000483283501C49043283500C32815004324B
:1015A0008350483AFF3A194D64000251083C0551F6
:1015B0000434005148340351043403510C340151B4
:1015C000D821040049004350E834483144500C39D4
:1015D00011344350FF342039445004314250043117
:1015E0004354603143500100902351319B00FF313F
:1015F000C150C1182C3BC1500433C250183BC250DB
:1016000070BDC0464D1500103C3E0110D5140010B1
:10161000036BF0B54F4699466423D6469A4680B58B
:10162000050083B08244806808F026FBAB6AEC6A50
:1016300006000F0000930194002C36DD4B46696ACA
:10164000986A05F093FA009A019B041C3900300057
:10165000801A994105F0F2F9174A184B05F035F94F
:1016600005F0F4F9011C201C05F097FAFC2189050E
:1016700005F093FA296A05F079FA28628C2428513A
:1016800050460AF0B1F92B6F002B04D001225046CE
:10169000295909F051FF4B469B6AAE62EF626B62BB
:1016A00003B0C0BCBA46B146F0BD002C01D1002B3E
:1016B000C4D1286AE2E7C04695D626E80B2E113E33
:1016C000A42010B5400008F0A9FC030038330363E0
:1016D000A02200231049C0658350083A815004328B
:1016E0008050483283500D49043283500C3281506F
:1016F000043283503C32835002004133FF3398322E
:10170000C250C2182C3BC25001220433C250183BB5
:101710000332C25010BDC046111600103C3E0110ED
:1017200070B5030005000122A83380351A7004004B
:1017300028000AF059F9EB68002B05D0A8230122F4
:101740002800E15809F0F8FE70BDC046AC23C3582C
:1017500070B504000500986A05F02CF90B4A0C4B93
:1017600005F0B3F80B4B002205F095F805F06EF983
:101770002035A06428000AF037F9E36A002B04D072
:1017800001222800A16C09F0D7FE70BDFEB6AF178C
:10179000F9F2234000807640F423C35870B504006A
:1017A0000500986A05F006F90B4A0C4B05F08DF818
:1017B0000B4B002205F06FF805F048F95035A06793
:1017C00028000AF011F9E36D002B04D00122280053
:1017D000A16F09F0B1FE70BDFEB6AF17F9F223405C
:1017E00000807640B22070B5800008F017FCA0237E
:1017F00002225B005242C2500200B132FF32503B23
:10180000C250C03A2C3BC2500023E422C82183506E
:10181000E33A42505131FF314418E0394450441802
:101820002C394450203143501C394250204C403117
:10183000435008394450D224043140504831435079
:10184000043143501B4964000151043403511A4DC3
:1018500010340251083C055102250434005148342B
:101860000351043403510C34015104340351103436
:101870000551124D083C05510434005148340351C0
:10188000043403510C3401519E21890043503C31F2
:1018900043500100B02349319B00FF31C150C118B2
:1018A0002C3BC1500433C2500433C25470BDC046F7
:1018B000211700103C3E01104D1700109917001021
:1018C000F0B5C6460500060080211F4A040000B599
:1018D000D06884350006000F543601304900536843
:1018E0000B42FCD10138176A0028F8D18021D0685A
:1018F000154A0004000F7F420130890053680B42F3
:10190000FCD10138536A0028F8D15B423000E76708
:1019100098460AF069F8236E002B04D001223000AB
:10192000E16F09F009FE43462800AB620AF05CF85B
:10193000EB68002B05D0AC2301222800E15809F008
:10194000FBFD80BCB846F0BD00002050F0B5D64687
:101950004F4646460025C0B53D4C8AB020003D4963
:1019600007F086FE0223200008220021009507F0E0
:10197000E3FE00220121082001F01CFC00220121CD
:10198000092001F017FC8026F827C02376021B03EC
:101990007F0202A9102206A89A4604930296039792
:1019A000059505F019FA2C4B06A9102202A89946B4
:1019B000079305F011FA8023DB020593274B2000E3
:1019C000039380231B0398460493002202AB00215B
:1019D00007F00AFF0122236820001343236001213E
:1019E000022300950B3207F0A7FE002201210C20F4
:1019F00001F0E0FB002201210D2001F0DBFB53464A
:101A000002A9102206A8049302960397059505F0F3
:101A1000E3F94B4606A9102202A8079305F0DCF96A
:101A2000C023DB0205930E4B0022039343460121A2
:101A30000493200002AB07F0D7FE02222368134371
:101A400023600AB0E0BCBA46B146A846F0BDC04625
:101A500000002050983E0110807701008077010837
:101A60008077010C862070B5800008F0D7FA03005B
:101A700028330362C022002394242049C064835089
:101A8000083A815004328050483283501C49043255
:101A900083500C32815004328350183AFF3A194D6A
:101AA00064000251083C055104340051483403518C
:101AB000043403510C340151C02104004900435047
:101AC000B834483144500C3911344350FF34203974
:101AD00044500431425004314354603143500100BA
:101AE000842321319B00FF31C150C1182C3BC150D0
:101AF0000433C250183BC25070BDC0464D1900108F
:101B00003C3E0110C1180010E021104AC9011368C1
:101B100070B50B400E4905000B60042104000D4B0D
:101B200020351960FC3113680B42FCD04823526801
:101B30002800E25209F058FFE36A002B04D001228A
:101B40002800A16C09F0F8FC70BDC04600C004403C
:101B500000D0044000E00440D02370B5020005002E
:101B600004001B065B6878321B02DB0F50351370D4
:101B7000280009F039FFE36D002B04D00122280072
:101B8000A16F09F0D9FC70BDD02370B5020005002B
:101B90001B065B688035DB03DB0FA8321370040083
:101BA000280009F021FFEB68002B05D0A8230122B3
:101BB0002800E15809F0C0FC70BDC04610B505F022
:101BC000CFFB1A2001F022FB002200211A2001F095
:101BD000F1FA1F211A2001F0D5FA40220F4BD02430
:101BE0001A6007F029FD1F211A2001F0CBFA00220C
:101BF00000211A2001F0DEFA00211A2001F0F2FA89
:101C0000172001F003FB802324061B04A36210208D
:101C100001F0FCFA80235B02A36210BD6CF001406E
:101C2000C62070B5800008F0F9F90023E822344995
:101C30008350083A81509E21A824043280504832B3
:101C40008350043283502F4A49004250043143509C
:101C50004039FF392C4D64000151083C05510225E3
:101C60000434005148340351043403510C340251FC
:101C70000434035110340551244D083C05510434FB
:101C8000005148340351043403510C340251882567
:101C90000434035103241E4EAD004451083D465107
:101CA0000435405148354351043543510C354251B8
:101CB0009E2205009200835049353C328350FF3507
:101CC0000C328550683504328550AC3A8518B032F4
:101CD0008550083A85182C3A855004328450040007
:101CE00004328154E034743284500C3A83500C3204
:101CF00084182C3A8450043281500432835470BDCD
:101D0000BD1B00103C3E0110091B0010591B0010A8
:101D1000891B00108823F0B5076AC5583433C458AE
:101D20003B7D466D83B0002B0CD1337D002B1AD147
:101D30002B7D002B28D1237D002B36D10BF0D4FB3B
:101D400003B0F0BD00238022002100200093103357
:101D50000BF01CFB012300220021B86A0BF0F0F805
:101D6000337D002BE4D0002380221021002000933B
:101D700010330BF00BFB012310220021B06A0BF093
:101D8000DFF82B7D002BD6D00023802220210020DD
:101D9000009310330BF0FAFA012320220021A86AE5
:101DA0000BF0CEF8237D002BC8D0002380220093B7
:101DB0003021002010330BF0E9FA012330220021FA
:101DC000A06A0BF0BDF8B9E7084B10B51A78002AE5
:101DD00000D010BD01321A700BF038F804480BF037
:101DE0002FF800200BF03EF8F3E7C046702F0020DC
:101DF000C45F0110CA2070B5800008F00FF903001D
:101E0000283303623433436502008023C064903278
:101E1000C0500833C2502C33C05034320833C25043
:101E20002C33C050F8220023B02430498350083AA4
:101E3000815004328050483283502D4904328350FF
:101E40000C32815004328350503AFF3A294D6400DD
:101E50000251083C05510434005148340351043404
:101E600003510C340151DC21040049004350F0348B
:101E7000483144500C3943500C3144182C394450EB
:101E8000043142500431435460314350A83C0C317A
:101E9000445045182C3945500431822542500421C4
:101EA000AD0041517C3543510C35445146192C3D10
:101EB000465104354251183D41517C3543510C3552
:101EC000445146192C3D465104354251183D41516B
:101ED0007C354351C8239B00C450C4182C3BC450CC
:101EE0000433C250183BC15070BDC046C91D00101C
:101EF0003C3E0110151D001010B50021002009F016
:101F0000ADFE10BD7047C0460A4B01211A68002380
:101F100000B589B00693059304910293019315319E
:101F20000633039100930021023B034809F06AFC49
:101F300009B000BDD8210020001D0020014B036026
:101F400001207047001D0020F0B5DE4657464E4682
:101F50004546E0B5A1B0FEF705FAFE4B01269A46CC
:101F6000836020230024C65400238364C4640023B8
:101F7000F94A80250265436553460200DB6D28322D
:101F80001A6000234366FEF7CDFE534683600223AA
:101F90005B4299464A46AF33FF33C2503033C2509A
:101FA0003033C2503033C250893BFF3BC264425190
:101FB000C2503433C2503433C2503433C25052460C
:101FC000536EFC22920082181A60EA22D200831813
:101FD0000021002219605A60EB22D20083180021F0
:101FE00052460400DD48002718605960D36DE62290
:101FF000D200A2185A600022D94B0021E250FC22E4
:10200000D200A318002219605A60FD22012040422C
:10201000C117D200A31818605960D24B283A00218A
:10202000E750A01809F01AFACF4BF222E7548027A4
:10203000002692003F06A31868321E605F60A31856
:1020400068321E605F60A31868321E605F60A3186C
:1020500068321E605F60A31868321E605F60A3185C
:1020600068321E605F60A31868321E605F60A3184C
:1020700068321E605F60A31852461E605F60D36FB7
:1020800022005B680C321A60FFF79EF952468260AC
:102090004A46426282655246536E020088325A6056
:1020A0000300C8339E66DF661E605F6068339E660D
:1020B000DF660690FFF7FCF9524682604A464B46BF
:1020C0004251B23283503032835043620E90FFF758
:1020D0004DFA524682604A464B464251B2328350D4
:1020E0003032835052464362536E0200E8329A60A7
:1020F00003002933FF331E605F609E66DF66834600
:10210000FFF7DEFA52464B468260902283504363CB
:102110000023002298460362436200238262C36266
:102120000300D8331E605F600590FFF7C9FA51467F
:102130009022816049460023815000228262C3625E
:10214000030041634146D833016241621E605F6013
:102150000390FFF7B5FA51464B468160902100226B
:102160004350436300238262C36202004146D83277
:1021700001624162166057600290FFF733FB5346DD
:10218000A822804683604B4692004244C364C367E2
:1021900000211300002219605A60AA2292004244D2
:1021A00013000022714919605A605246D36DA02273
:1021B000920042449A60AF220021920081500200B6
:1021C0008932FF3216605760683216605760962277
:1021D0009200424416605760FFF744FC524682600A
:1021E0004A4642514D46B23285504562554602003C
:1021F0006B6EB832DA600300F8331E605F609E6673
:10220000DF660190FFF70CFD5246AC2382604A4620
:10221000C264C267C2503033C2505246536E02008D
:10222000E0321A61A82292000500831800210020E4
:10223000083218605960AB1800224C4919605A6086
:102240005246D36DA0229200AA18AF21DA60002274
:1022500089006A502A002132FF32166057606832C6
:102260001660576068321660576096229200AB186D
:102270001E605F60FFF7BEFD51468C2381604946BA
:1022800041628165C1504B46C23143505146020004
:102290004B6EF0325A6103003133FF331E605F60D2
:1022A0009E66DF66EC2301369B00E6502200049018
:1022B00004210120EF2707F093FEBF00E051220028
:1022C0000421012007F08CFE043FE051653F22000D
:1022D0000421FF3F012007F083FEBC46ED23A44408
:1022E00067469B00E050643307602200E6500421FB
:1022F00001200F9707F074FE1D4E2200A05104210B
:10230000012007F06DFECA27043EA05122000421DF
:102310007F00012007F064FEBC46A4446746062205
:10232000144B0421E05064330760E2500620220081
:10233000664607F055FE104F2200E05104210620AA
:1023400007F04EFEB946043FE0512200042106206A
:1023500014E0C046001D002080F0FA0240420F0049
:102360006C070000FC070000F90700008096980049
:10237000240400001C0400008C04000007F030FE60
:10238000E22252009446FE4BA4443032E0506146B3
:10239000892394469B00A44462469C46B433A444DB
:1023A0008260109262469C462C33A444C2600D9217
:1023B00062469C46A444634643610A939D2302619E
:1023C00009920522DB00066041600791E25004217A
:1023D0002200052007F004FEEA4A0421A050220052
:1023E000052007F0FDFD9E22D200A050042122000E
:1023F000052007F0F5FDE44B0896E0500660079EC7
:102400000A9B46600D9E03618660099EAA23C660F2
:102410000426DB00E65022000421042007F0E0FD42
:10242000DA49220060500421042007F0D9FDAB22D4
:10243000D200A05004212200042007F0D1FDD44B8B
:102440000899E050099B01600A998360B723C16035
:102450000221079ADB004260E15022000231022093
:1024600007F0BEFDCB4B2200E0500421022007F014
:10247000B7FDB821C900605022000421022007F0F6
:10248000AFFD0899C44B079AE05001600221643304
:102490004260E15022000231022007F0A1FDBF4B53
:1024A0002200E0500421022007F09AFDC521C90056
:1024B000605022000421022007F092FD079AB84BD9
:1024C0000899E0504260002264330160E2506833B2
:1024D000E65022000421042007F082FDB14B2200C7
:1024E000E05004210420DF2607F07AFDF600A05119
:1024F00022000421042007F073FD089EAA4B0799CF
:10250000E0500660099EB0238660002641600A996B
:102510005A46C16006990320CE506833CE506833C6
:10252000CE50BC219A46703BD6500E3BFF3B490033
:1025300053507539FF3907F053FDC2235E465B00E7
:10254000F0505A460421032007F04AFD53465A46EC
:10255000F0500421032007F043FDBE235B00F05040
:1025600068265E4406601196C82298265A445E4446
:1025700046608260129613920126C02205980421BB
:10258000865006000200012007F02AFD3300CC2609
:102590001A009851042101201E0007F021FDC821D6
:1025A00032007050C4390120059607F019FD059BD3
:1025B000C4261A0078329851149202600123C02276
:1025C0000398042183500200012007F009FDCC226A
:1025D000039B042198501A00012007F001FDC82335
:1025E000039A0421D050012007F0FAFC0123C021F6
:1025F000039A90517832026002981592435002007B
:10260000BC39012007F0ECFCCC21029B58501A0089
:10261000C839012007F0E4FCC821029B58501A0079
:10262000C439012007F0DCFC029B414698511E0092
:1026300078360660B8201696012640000E50703895
:1026400042460421FF3807F0CBFCBE2341465B0025
:10265000C85042460421012007F0C2FCBC23414679
:102660005B00C85042460421012007F0B9FCBA23A0
:1026700041465B00C850942141440160EC20434630
:1026800040001E50D83842461791FF38042107F009
:10269000A7FCF221434649005850E1394246FF3930
:1026A000012007F09DFCF02342465B00D05004213E
:1026B000012007F095FCEE2342465B00D050A93B79
:1026C000FF3B43440360902080001650042101200A
:1026D0009326189307F084FC4346B600985142466F
:1026E0000421012007F07CFC922346469B00F05019
:1026F000424604210120912607F072FC4346B600B1
:1027000098516423434403601993E0210023019806
:1027100043504933FF33DE39C150020002310220F9
:1027200007F05EFCAA23019A5B00D050042102202E
:1027300007F056FCA821019A490050504D39FF3945
:10274000022007F04DFCA623019A5B00D050130035
:102750006833436098321B938423026000205B003F
:10276000E8507130083BFF3BFF302B5070381A9215
:1027700004212A00FF3807F033FCBE21490015E090
:1027800084040000F4040000EC0400005C05000078
:1027900054050000C4050000BC0500002C06000024
:1027A00024060000FC060000F40600006850793999
:1027B0002A00FF39012007F013FCBC235B00E8501E
:1027C0002A000421012007F00BFCBA2149006850BF
:1027D0004139FF398C46AC4461460160EC2001234D
:1027E00040002B50D8382A001C91FF38042107F0F4
:1027F000F7FBF22149006850E1392A00FF39012036
:1028000007F0EEFBF02149006850DD392A00FF395E
:10281000012007F0E5FBEE21490068507939FF39C6
:102820008C46AC44614601609020012380002B500F
:102830002A001D910120042107F0D2FB9321890079
:1028400068502A000421012007F0CAFB9221890068
:1028500068502A000421012007F0C2FBA851B13EB4
:10286000FF3EB446AC4466468C21066053460020C9
:102870001E960126049A49005050D050EE20E033B5
:10288000E6500433E4508033E6500433E4502833F8
:10289000E6500433E450753BFF3BE6500433E4500C
:1028A0002C33E6500433E4502C33E6500433E45028
:1028B0002C33E65080000433E450235815392200AD
:1028C0001E60FF39012007F08BFBEF218900635860
:1028D0002200186080239B005B4403608420C000BA
:1028E000235804211E60012007F07AFBFE492200D4
:1028F000635882211860049B89009C46E359614417
:102900008A4601601E600421012007F069FB4B46E6
:102910000122E35804211860E35901205A60220083
:1029200007F05EFB4B460122E35804215860E3594F
:1029300001209A60220007F053FB4B460122E35826
:1029400004219860E3590120DA60220007F048FB77
:102950004B460122E3580421D860E35901201A6153
:10296000220007F03DFB4B46E35801221861E35972
:102970004F465A6104212200012007F031FBE35940
:1029800057461A6858611760049A94219446A627FE
:102990005A688900614411608946B8219A68BF006D
:1029A000674417608900DA68614411601F910699D5
:1029B00082278C461B69BF0067441F600B979427D2
:1029C000BF00674407609E200122C00023580421F5
:1029D0001A60012022000C9707F002FBC34B012272
:1029E0001F00E358042118609E20C00023580120D6
:1029F0005A60220007F0F4FAE359012258609E2041
:102A0000C000235804219A600120220007F0E8FA50
:102A1000E359012298609E20C00023580421DA6007
:102A20000120220007F0DCFAE3590122D8609E2041
:102A3000C000235804211A610120220007F0D0FAB7
:102A4000E35957461A68186117604F465A681F992C
:102A500017609A680B9FDB6811601F600C9F220053
:102A60000760AB27FF00E359012704211F60012005
:102A700007F0B6FA9E4B2200E35804211860AB2001
:102A8000C000235801205F6007F0AAFA984B22008B
:102A9000E35804215860AB20C000235801209F60F8
:102AA00007F09EFA924B2200E35804219860AB2075
:102AB000C00023580120DF6007F092FA51468C4B8A
:102AC000E3581A68D860116049465A689B681160DB
:102AD0000B99220019600C9B04210360B820C000F0
:102AE000235801201F6007F07BFA824B2200E35835
:102AF00004211860B820C000235801205F6007F04F
:102B00006FFA51467B4B2200E35858601B681960EE
:102B10004B460360C520C000235804211F600120DC
:102B200007F05EFA744B2200E35804211860C520B8
:102B3000C000235801205F6007F052FA51466E4BE7
:102B40002200E35858601B6819604B460360DF2081
:102B5000C000235804211F60012007F041FA674F8D
:102B60002200E35904211860DF20C000235801200F
:102B70005E6007F035FAE35922005860DF20C0009C
:102B8000235804219E60012007F02AFAE35922000D
:102B90009860DF20C00023580421DE60012007F088
:102BA0001FFAE35957461A68D86017604F465A68AB
:102BB0009B6817600B9F59461F600C9FD8230760C6
:102BC000A8270E98BA468067C0512C37C651C0500E
:102BD000584646678067A4200E50584651464050DC
:102BE000C651C0277F00B946C0505F4648463B5893
:102BF00080385A461E60A439C227FF3807F0F0F922
:102C00005B467F00DB595A46186058464B46C3580E
:102C100004215E60012007F0E3F95B46DB595A4668
:102C2000586058464B46C35804219E60012007F067
:102C3000D7F95B46DB59059F1A68791CFF3198600C
:102C4000116003995B684A1CFF321A60029A882758
:102C5000531CFF330360842391460598C051C9512A
:102C6000D6504433D358D25104211E60012007F0BE
:102C7000B7F94A46CC23D358029218609C239B0094
:102C8000E31803604346A0201E5004301B501E640E
:102C90005B645B67BC2340465B00C35842461E60D2
:102CA0000421012007F09CF9BE2341465B00CB586C
:102CB00042461860019BD133FF330360F0235B0071
:102CC00018009946CB58E0381E600421FF3807F001
:102CD00087F9F22341465B00CB58019A1860CA235A
:102CE0009B00E3180CE0C04624040000F40400003C
:102CF0005C050000C40500002C060000FC06000076
:102D00000360A4205346566792671650AC30D250E9
:102D1000135850381E600421FF3807F061F9AA23C8
:102D2000019A5B009A46D35804211860A8204000FD
:102D3000135850385E60FF3807F052F95146019B36
:102D40002A005B58414658601B68B0311960434601
:102D5000F8330360BC23A0205B002E642E676D64F3
:102D60006D67EB582E5004302D5030302D5004211B
:102D70001E60D33807F034F9BE235B00EB582A00FD
:102D80001860EF4B0421E31803604B46EB58012019
:102D90001E6007F025F9F2235B00EB582A0018604B
:102DA000E84B0421E318036092239B00EB580120B9
:102DB0001E6007F015F993239B00EB5806991860E5
:102DC00092231B01E3180360230004988133FF332F
:102DD00003623033436523004B44C351BC2389371E
:102DE000FF37E219B437C250E3192C370B62E319ED
:102DF000B03F4B65E3195F46059E3B62543737632E
:102E000030373B00039F02983B633033036303007A
:102E100064331A009B2347469B00E2502037B433AB
:102E2000E7504346019F80333B623B0054334046AA
:102E30001A00F423C2503B0084331A002F00AC2345
:102E40002037C2500433E75030373433E75030373F
:102E50003433E750BC4B11985B6B01271860129814
:102E60007F4258601398149E98601798DE609861AE
:102E70000F98159E586220001E61169E1A9A5E6178
:102E80001B9E1A62DE61089A099EDA639E62079AA7
:102E90000A9E1A64DE62109A189E5A645E630D9A46
:102EA000199E383018639E639A641C9AE626DA6489
:102EB0001D9AB6001A651E9AA4485A65E822920027
:102EC0000023A11801220A604B60A119A04E0E60D8
:102ED0004F608121C90061180A604B608021012781
:102EE0009C4EC90061187F420E604F608E21C90060
:102EF00061180A604B608D21C900661801214942A2
:102F0000306071609B21C90061180A604B609A2192
:102F1000C900661801219048494230607160A821BB
:102F2000C90061180A604B60A721C9006618012119
:102F30008A48494230607160B521C90061180A6051
:102F40004B60B421C90066180121854849423060B0
:102F50007160C221C90061180A604B60C121C900BB
:102F6000661801217F48494230607160CF21C90055
:102F700061180A604B60CE21C900661801217A48A9
:102F8000494230607160DC21C90061180A604B6001
:102F9000DB21C9008C4601270698744E6444010069
:102FA0007F42266067600127A031694E0A604B604E
:102FB0007F4208390E604F6001270A674B676C4EED
:102FC000411CFF317F4269300E604F600A674B67DA
:102FD000FF300121040067484942206061605C467F
:102FE0000127611CFF315A4E0A604B605846083970
:102FF0007F420E604F600127564E6130FF307F42A6
:103000000A674B6706604760059F5B483900B0312F
:103010000A604B600121A837494238607960039FFC
:103020004B4E3C00A837B034226063603860796052
:10303000029F3C00B034226063604446A837386089
:10304000796001276134FF34226063607F42083C6D
:1030500026606760226763676834206061608C2443
:10306000A4004444226063608A2401270199434EEE
:10307000A40044447F42266067600C00012134486C
:10308000D034226063604942083C2060616001994D
:1030900030480C0031313934FF34FF312260636035
:1030A0000C0001214942206061602900F8310A606A
:1030B0004B6008390C0001212548494220606160BD
:1030C00029006131FF310A604B6008390C00012191
:1030D00020484942206061602900C931FF310A60FF
:1030E0004B6008390C00012123484942206061608F
:1030F0008C21890069180A604B608A2189008C46FE
:10310000049C654421002E606F6001270931FF3166
:103110000A604B600E4E611CFF317F420E604F60B3
:103120000127134E6934FF347F420A674B672660DC
:10313000676021B0F0BCBB46B246A946A046F0BDD0
:1031400088080000D8080000001D00200400FFFFD0
:103150000000FFFF0100FFFF0500FFFF0600FFFF6B
:103160000700FFFF0800FFFF0900FFFF0A00FFFF45
:103170000B00FFFF0C00FFFF0200FFFF0300FFFF3B
:103180007047C046094A830094464022634410B504
:103190001C68C0006240C0241440802252011343C6
:1031A0001C60034B9C466044416010BD04C001405C
:1031B000004001400A4B80009C46042360440029E3
:1031C00001D00C230821002A00D10B0002685340D3
:1031D0000C221A4080235B01184302607047C046EE
:1031E00004C00140084B80009C466044002905D083
:1031F00080239B011843402303607047C0239B0139
:10320000184340230360F8E704C001400123D022A3
:103210008340120693629361094A830094464022D8
:1032200063441968C0004A40C02111408022520105
:1032300013431960034B9C46052360444360704769
:1032400004C0014000400140024B18688007C00FD5
:103250007047C04600C00640EFF3108072B6034AC4
:103260001368002BFCD0BFF35F8F70472C0100D098
:10327000BFF35F8F0022024B1A6080F31088704703
:103280002C0100D070B5EFF3108C72B60D4D2B6889
:10329000002BFCD0BFF35F8F0724CB08C618C05C9F
:1032A00001230C40A3401C000440034207D1034308
:1032B0003370BFF35F8F2C608CF3108870BD1000EB
:1032C00001F00AFD2C0100D0F8B54746CE468846ED
:1032D00080B5EFF3108C72B6214D2C68002CFCD019
:1032E000BFF35F8F9A422CD8D4080727055D0619D3
:1032F00001241740BC402C421FD0072101278946DA
:1033000009E0D408055D06194C4639001440A14077
:103310000C00294211D001329342F2D201204042E6
:10332000BFF35F8F00220E4B1A608CF310880028C9
:103330000FDBC0BCB946B046F8BD2C43100034705A
:10334000EEE7BFF35F8F00232B608CF31088012022
:1033500040424346002BECD0089801F0BDFCC0462B
:103360002C0100D00021044B044ABFF35F8F02C33D
:103370009342FAD17047C046000100D0800100D0CE
:10338000044A1078431CDBB2172B00D910231370AA
:103390007047C046C010002000B5054B83B0010047
:1033A000009318221F230348FFF78EFF03B000BDD0
:1033B000D03E01104C25002001238340002904D079
:1033C000034A1360034A13607047034A1360FBE724
:1033D00080E200E000E100E080E100E001238340C2
:1033E000014A13607047C04600E200E0084B10300D
:1033F0009B688000C358002B07D0064A00209B1A08
:103400002F229A424041C0B270470020FCE7C046DC
:1034100000ED00E0C4100020024B10309B688000DB
:10342000C058704700ED00E070B50D00EFF3108656
:1034300072B60F4A1368002BFCD0BFF35F8F0D4BA1
:1034400010309B6884001B590B4A934203D09D4265
:1034500001D001F059FC074B9B681D51BFF35F8FF2
:10346000BFF35F8F0022024B1A6086F3108870BD95
:10347000240100D000ED00E0CD010010F0B557466A
:103480004E46DE464546E0B585B00600029117007F
:10349000EFF3108B72B6674A1368002BFCD0BFF3B2
:1034A0005F8F0025644B5D579A46002D00DAA4E03B
:1034B0006B00624C03935B199B009846A146C14484
:1034C0004B4652469B79103613705D4BB2009B6899
:1034D000019299580B1B2F2B34D95A4B994200D08B
:1034E000A4E0039B584A9C46584B6544AD00635387
:1034F000434602336519E418554B0121043B1B1B5D
:103500001B055B0D13436B80524BEF71AB80FF23A8
:10351000AB71029BAB604B460B431900484B019AC1
:103520009B689950BFF35F8FBFF35F8F0022414BC1
:103530001A608BF3108805B0F0BCBB46B246A946B2
:10354000A046F0BD01200A008243D379BB422FD8A8
:1035500045464E46130040491B1B5B415943090D2C
:103560003A4B63533A4B02356519043B5B1B1B0511
:10357000354D5B0D2B4373800426B446E044444430
:10358000131F1B1B4C46A17102991B05A1604946E4
:103590005B0D2B43A380314BE77101431360BDE703
:1035A0005800C01880002018C679BE422BD90200EE
:1035B0000623D356002BF3DA101D82462848804696
:1035C00004267642B446E14450464E46361A30054B
:1035D000400D824656461C48957106439680039AD4
:1035E000944665441D4AAD00641922604246A371A9
:1035F000029BA280E771A36090E701F085FB0025A4
:1036000053465D5754E7101D8246908840050015CB
:1036100084464046D444664604302018301AE026DA
:103620000005400D360230438046C9E701F06CFBCF
:1036300057E7C046240100D0762F0020C410002098
:1036400000ED00E0CD01001000E0FFFF00A1FFFF52
:10365000F410002001BDFFFFAAAA00000148804726
:1036600001BD0000F0B5DE4657464E464546E0B582
:103670000C0083B0EFF3108972B6584A1368002B20
:10368000FCD0BFF35F8F564B9A68030010339F0046
:10369000D559544A9046954232D0A54243D0524E15
:1036A000AA1B2F2A2CD801228240924651464F4A0B
:1036B00012681140019151464D4A1160BFF35F8F6E
:1036C000EFF305829346002A33D101232A009A435F
:1036D00093689C4208D177E04B005B189B00F3187D
:1036E0009968A1422AD01A00062151560029F3DA1E
:1036F000019B002B19D052463E4B1A603B4B1A607F
:10370000374B9B68DD51BFF35F8FBFF35F8F0022A4
:10371000324B1A6089F3108803B0F0BCBB46B24646
:10372000A946A046F0BD1500EAE75246304B1A60A4
:10373000E6E79342C9D001F0E7FAC6E706215956F9
:10374000002921DB4A005018800034188046A06808
:103750009860E079D871062020569871002824DB03
:10376000A488F01A6405241544440019E0240005D7
:10377000400D24022043988052181F4B9200B61827
:103780001A781970B271B3E7594600290FD1FF3189
:1037900091711A49918018490A789A71184A9B1BAD
:1037A0005B415A43120D0A70A2E71648E3E7164A36
:1037B0001649D21A083A5002400D01439980144923
:1037C00052080A43DA8093E7062151561300002974
:1037D000B8DA5A46002AEAD14546DCE7240100D08F
:1037E00000ED00E0CD010010C410002000E100E079
:1037F00080E100E080E200E0762F002001BDFFFFC5
:10380000AAAA000001BD0000FE10002000F0FFFF8A
:1038100000F8FFFF70B5EFF3058101240443EFF3D7
:10382000108C72B6214A1368002BFCD0BFF35F8F57
:103830001F4B05001F4AED1A6D416A43120D1E4DC4
:103840008900AE6852B27658A6421CD0062159565D
:1038500091421CD012215956914222D01E21595614
:10386000914220D02A2159560324914210D0134B63
:1038700019781A708171BFF35F8F00220B4B1A60A9
:103880008CF3108870BDAB680D4C5C50EFE70024E2
:103890006100091989005B18FF2199710949998014
:1038A000E5E70124F4E70224F2E7C046240100D052
:1038B000C4100020AAAA000000ED00E0762F00202E
:1038C000CD01001001BDFFFF054B064A1360064AFB
:1038D000136053609360D3601361536193617047C9
:1038E0008080808000E400E004E400E000B5074B45
:1038F00083B001000093002205230548FFF7E4FC94
:10390000002801DB1F23181A03B000BDEC3E011094
:103910007C2F002070B504000E001500FFF730FD6D
:103920000100200000F006F8A680E580BFF35F8F5D
:1039300070BDC046024B9C466144890001607047DF
:103940004000003410B50400FFF71AFD010020000C
:10395000FFF7F0FFFF232371BFF35F8F10BDC04659
:1039600010B50400FFF70CFD01002000FFF7E2FF97
:10397000FF23A380BFF35F8F10BDC04610B50400C6
:103980000120FFF709FD044B9C4660448000206045
:10399000BFF35F8F10BDC04640000034034B9C4610
:1039A000614489000160BFF35F8F704740000034BD
:1039B00083680B4810B584466144624409011201D2
:1039C0009A18591854684B6801209C4201D802D0BB
:1039D0000020C0B210BD12680B689A42F9D8F7E710
:1039E000FFFFFF0F0A4B1968EFF3108072B60A68E9
:1039F000002AFCD0BFF35F8F1B68BFF35F8F0022EC
:103A00001A6080F3108840BF002000217047C04634
:103A1000342F0020F8B557464E464546DE46E0B501
:103A200099460CAB1C780DAB1B78060090469A4665
:103A30000768002C11D1BC7B002C42D065003B688C
:103A40002D19033D59194B78BB73002B00D1FB7323
:103A500000238B704B700B7004E065003B682D19E0
:103A6000033D5919B2682A4B94464246E3181B019C
:103A700063441A604A465A600A9A9A600B9ADA605E
:103A800000238B704B700B707B7B9B46002B2BD0E5
:103A900022005946B8687B6898473A68002816D0D3
:103AA0005B4658465B005B445519033BA870D11830
:103AB000D35C002B00D06B705B460C707B73A3450E
:103AC00013D0F0BCBB46B246A946A046F8BD5B4643
:103AD0005B005B44033BD3189C705119525D002A74
:103AE00000D05A705B460B707C7342464B46307D6B
:103AF00000F0B8FB051E06D05346002B03D1210071
:103B0000306800F0D3FD0E9B002BDAD01D70D8E793
:103B1000FFFFFF0FF0B5DE4657464E4645460023F1
:103B2000E0B58BB00893674B8200D45800239B46C6
:103B3000099000F00DFB626806000F00EFF310859E
:103B400072B61368002BFCD0BFF35F8F23689C46CE
:103B50005B7B9946002B00D169E0A2685A4B9046E6
:103B60004B441B01984443461A685B6810001900D7
:103B7000801BB941002900DC63E0099800F072FB6A
:103B800000230022984600230692079300239A46BA
:103B90006368BFF35F8F5A461A6085F310885346F7
:103BA000002B08D10028C4D10BB0F0BCBB46B246F4
:103BB000A946A046F0BD089B414618024B46184353
:103BC000D047626806000F00EFF3108572B61368E5
:103BD000002BFCD0BFF35F8F002F50DB33003B4343
:103BE00002D02369002B61D12368D97B002907D03B
:103BF0004A00521819688C4649466244033A51708B
:103C00009A7B002A01D14A469A734A46DA734B4698
:103C1000E168013BCA5C0132CA545B4623616368B8
:103C2000BFF35F8F5A461A6085F3108881E700233F
:103C300000229846002306920793002300209A460C
:103C4000A6E7002902D1002800D096E700216046AF
:103C500000F0AAFC43461A685B6806920793434645
:103C60009B689A464346DB689846E3684B44013BB1
:103C70001B7808931B0203432361002088E7236914
:103C8000002BB1D0069A079B921BBB41002B15DB82
:103C900059460491012103914946029141460191FF
:103CA000514620000091FFF7B5FEB6E700F050FA4C
:103CB00032003B0012184B41002BE9DA0122034B82
:103CC0005242E5E7142E0020FFFFFF0FFFFFFF7FAA
:103CD00010B5144C6368002B04D00A211248FFF77A
:103CE00029FE10BD2300114A1021206800F076FB48
:103CF000032000F021FA032000F01EFB03200C49F2
:103D000000F06AFAFFF73CFB0A4B9C46032323753D
:103D1000D0231B061B6860446375074B80006060FE
:103D2000DC60DAE70C110020342F0020B1390010DC
:103D3000153B001040000034142E0020004870474E
:103D40000C110020F0B54E464546DE465746E0B51C
:103D500085B0019310AB1B780600039300239946AE
:103D6000984600927268EFF3108B72B61368002BBE
:103D7000FCD0BFF35F8F3568AC7B002C3DD0670073
:103D80002B683F19033FDB195A78AA73002A00D128
:103D9000EA73B168474A8C4600980199A21812014B
:103DA0006244106051600E9991600F99D160424653
:103DB0009A705A701A706B7B9A46002B67D022005B
:103DC0001900A8686B6898472A68002852D05346A3
:103DD00050465B005344D719033BB870D118D35CED
:103DE000002B00D07B7053460C706B7354454FD042
:103DF000F3681B19013B187800E000207368BFF3DB
:103E00005F8F42461A608BF31088002C4FD04B46D0
:103E1000002B08D10002204305B0F0BCBB46B246DF
:103E2000A946A046F0BD039B002B3ED00E9B002070
:103E30000F999847030004000D000B4335D000296B
:103E40000ADA009A019B121BAB4100920193002BEE
:103E50000ADB039B994685E700F07AF924184D4167
:103E600000940195002DF4DA0123134C5B4200937A
:103E70000194EEE753465B005344033BD3189C7018
:103E8000D119D25D002A00D05A7053460B706C7362
:103E9000307D009A019B00F0E5F981460028A7D00B
:103EA0002100306800F002FCA2E70020B4E7012006
:103EB0004042B1E7FFFFFF0FFFFFFF7F407D7047EC
:103EC000F0B504000D0006267642F717C6463619EF
:103ED0006F4100B584B08F4214D811D000F038F98A
:103EE00032003B00121A8B41002B15DC002B3ED018
:103EF0002000290000F060F904B080BCB846F0BD95
:103F00008642EBD90026002700F022F932003B0060
:103F1000121A8B41002BE9DD002302930193154B0C
:103F20003200009314483B00FFF70CFF0028DFDB52
:103F300000239846BC46114A114F7B6A9C4504D821
:103F4000B96A8E42D4D99C45D2D11168EFF3108062
:103F500072B60B68002BFCD0BFF35F8F1368BFF302
:103F60005F8F4146196080F3108820BFE5E7002A83
:103F7000BED0D1E7E53900100C110020342F00200D
:103F80000040054070B504000D0000F0E1F8001994
:103F90006941002902DBFFF793FF70BD0120014951
:103FA0004042F8E7FFFFFF7FF0B5EFF30583CE4611
:103FB000474680B505000C0085B0002B12D02C4A76
:103FC0000020536A9C4203D8926A0130AA4204D36B
:103FD00005B0C0BCB946B046F0BDE01A421E9041E3
:103FE000C0B2F5E7234E02930193234B02000093E6
:103FF00030000B00FFF7A6FE031EE0DD20BF716856
:10400000EFF3108772B60A68002AFCD0BFF35F8F07
:10401000DAB294463068427B62451DD0FF221A40D6
:104020005100894601689144884649464144033914
:104030008978002913D0F1681B0A88464244013A66
:104040001278DBB29A420FD07368BFF35F8F002201
:104050001A6087F31088B2E7FF221A40EBE7326953
:104060009342F1D13161EFE7614600F01FFBEBE7CE
:10407000004005400C110020E5390010F0B5EFF3C9
:104080000582D6464F4646461000C0B51038EFF3BD
:10409000108872B6214C2368002BFCD0BFF35F8FD1
:1040A0000123190081401E4D1F006963AA461D4D62
:1040B00029601D4D2E78AC463500C5402F402B425F
:1040C00009D1BFF35F8F276088F31088E0BCBA4640
:1040D000B146A846F0BD5346144D5F6A83005D5952
:1040E000AF420ED3124A8E439B5862461670BFF3FE
:1040F0005F8F0022226088F31088002BE6D098475B
:10410000E4E70C4B92009C46624413681360BFF3D3
:104110005F8F0023236088F31088D7E7280100D041
:10412000004005403C7005407B2F0020482F0020B8
:104130006C230020D03F054010B50100024A03481F
:10414000FFF7A0F810BDC046103F0110742F0020EB
:10415000034B596A0A00986A596A8A42FAD1704731
:104160000040054070B504000D00124A536A190062
:10417000966A536A8B42FAD13000190024184D41D7
:10418000AB4211D80ED02B000A494A6A9A42FCD39E
:1041900007D1084A02E0516A994202D1916AA142CC
:1041A000F9D370BDA642EED9012301246442E5177C
:1041B0005B42E9E700400540064A536A9942FCD851
:1041C00007D1044B02E05A6A914202D19A6A8242B4
:1041D000F9D370470040054070B504000D00EFF3BF
:1041E000108672B61A4A1368002BFCD0BFF35F8F9B
:1041F000002D1BD02000FFF70FF9164981420AD08D
:104200002000FFF711F901212000FFF7D5F8012365
:10421000A340114A1360114BA400E550BFF35F8F18
:1042200000220B4B1A6086F3108870BD0B4BA20066
:10423000D5500122A2400A4920000B7893430B700D
:104240000449FFF70FFA00212000FFF7B5F8E5E772
:10425000280100D07D400010386005406C2300200C
:104260007B2F0020F0B54F46D6464646C0B5070026
:104270002C4C616A0D00A66A616AA942FAD18B4290
:1042800008D805D00120E0BCBA46B146A846F0BD2A
:10429000B242F7D9EFF3108A72B6234801680029B9
:1042A000FCD0BFF35F8F0125BD4020491D4C8846DF
:1042B000097889462943C9B28C4641466046087050
:1042C000391D1B48890065630A51B9000B50216AEA
:1042D0000020294219D0616A0800A66A616A8142F9
:1042E000FAD18B4219D801D1B24216D8CC4516D09A
:1042F0000C4B1F201D625D6301230740BB400D4A2C
:104300001E38136043464A461A70BFF35F8F00227F
:10431000054B1A608AF31088B5E70020F5E7012005
:10432000F3E7C04600400540280100D07B2F002065
:10433000482F002080E200E0EFF3108C72B60A49AB
:104340000B68002BFCD0BFF35F8F01238340074A2B
:104350000748136202789A430270BFF35F8F00230D
:104360000B608CF310887047280100D00040054096
:104370007B2F002070B5050014001600002915D011
:104380000C00002A12D080686B68984729680028C2
:104390000ED073009B196200033B1219CB18033A2D
:1043A0009C7088188A5C002A15D10670200070BDA8
:1043B00063001B197200033B9219CB18033A9E70DD
:1043C00088188A5C002A02D104703400EEE75A7023
:1043D00004703400EAE75A700670E7E730B583608E
:1043E0000023CCB243730133047342608373C473FC
:1043F0000D000068012C06D9421C0133DBB213709A
:1044000003329C42F9D1FF2129404B005918002367
:1044100040180338437030BDF8B5CE464746060015
:104420000C0080B5002907D04D0003686D18033DCE
:104430005A195778002F04D12000C0BCB946B046A5
:10444000F8BD7900C919033988464344597889462B
:1044500000215970517073683A00210080689847B4
:104460003368002814D042469A18947059195B5D3D
:10447000002B00D053700F70270049463000FFF723
:10448000CBFF390002003000FFF774FF0400D3E7D0
:10449000424641465D19AF709A185B5C002B00D014
:1044A0006B701470E9E7C046F0B557464546DE46E6
:1044B0004E46E0B50D006B0001685B19DF1E04007D
:1044C000C85D83B00192CA19002850D043001B1860
:1044D000033BCB185E78B446002E1AD1019E002E05
:1044E00042D0E67B002E04D073009B19CB18033B0F
:1044F0005D70A37B002B00D1A573E57300282FD13D
:104500000023537003B0F0BCBB46B246A946A04698
:10451000F0BD72006244033A89184A78904600223E
:104520004A7091465A70010032002000FFF722FFC6
:1045300043468246002B07D05B0021684344033B7F
:10454000CB185A78002A16D1424651462000FFF770
:1045500011FF2168019BCA19002BC2D10028CFD0BE
:1045600043001B18033BCB1800219970C8E7019B3F
:10457000002BB6D1C4E750008018033809184878DA
:10458000834648464870587041462000FFF7F2FEC7
:10459000594680462000FFF73FFF414602002000B9
:1045A000FFF7E8FE8046CFE7F0B557464546DE46C2
:1045B0004E46E0B583B00191457B04006B00006876
:1045C0005B19DF1EC15DC219002952D04B005B1878
:1045D000033BC3185E78B446002E1CD1019E002E0A
:1045E00044D0E67B002E04D073009B19C318033B14
:1045F0005D70A37B002B00D1A573E573002931D139
:10460000002328005370617303B0F0BCBB46B24670
:10461000A946A046F0BD72006244033A8018427871
:1046200090460022427091465A7020003200FFF7F7
:10463000A1FE43468246002B07D05B00216843441D
:10464000033BCB185A78002A17D142465146200026
:10465000FFF790FE019B01002068C219002BC0D11A
:104660000029CDD04B005B18033BC3180020987085
:10467000C6E7019B002BB4D1C2E750008018033875
:1046800009184878834648464870587041462000CB
:10469000FFF770FE594680462000FFF7BDFE4146F9
:1046A00002002000FFF766FE8046CEE770B50400EA
:1046B00000292CD0437B8B422ED00568480040183F
:1046C000033828188278002A21D053009B18033B16
:1046D000EA5CEE188A4202D11BE0002A08D053009F
:1046E0009B18033BEB185A788A42F6D142785A70ED
:1046F00000230122837043702000FFF7D5FE617B09
:1047000002002000FFF736FE6073012000E0002069
:1047100070BD43783370EBE701221900FFF7C4FE48
:1047200060730120F4E7C04630B50C2083B000F080
:10473000B9F9FEF789FD00280ED0994B994A1A6005
:104740005A609A60DA601A615A619A61DA611A6293
:10475000954A5A6203B030BD944CA06700F0F6F958
:104760000122934B1A60636C012BFCD10322914B05
:104770001A608E4A936B012BFCD1013301218E4AC2
:104780008E480093043300F03DF905238C4A0093D2
:1047900001218C4800F036F98B4B5A68FF2A02D869
:1047A000802252005A6080227D4C824B2169120186
:1047B000854D1A60002907D0606901F027FE431C6F
:1047C0005800C0180338FDD2E0217F4B02201A6840
:1047D0001140802252012A43116019684840032188
:1047E0000140116004219A681142FCD0802280218E
:1047F00092012A4309011160802252005A60734BD2
:104800002361734B5968FF2900D85A600321684A15
:104810006F4B116002399A681142FCD0E0201A688F
:104820001040802252011A4310601868484003214A
:1048300001400220116066498A681042FCD0802243
:1048400092011343802212011A608022614B5200B0
:104850004A606361604B5968FF2900D85A60802222
:104860005E4BE16912015C4D1A60002907D0606956
:1048700001F0CCFD431C5800C0180338FDD2E022E3
:1048800055490B681A4080235B012B431A60802333
:1048900080229B012B4312011A608022414B52005F
:1048A0004A60E3614E4B5968FF2900D85A60802264
:1048B0004C4B216A12014A4D1A60002907D06069E9
:1048C00001F0A4FD431C5800C0180338FDD2E022BB
:1048D00043490B681A4080235B012B431A608023F5
:1048E00080229B012B4312011A60802380225B00EF
:1048F0004B602C4BD20223623B4B5968914200D251
:104900005A608022394B616A1201374D1A600029C2
:1049100007D0606901F07AFD431C5800C0180338C5
:10492000FDD2E02230490B681A4080235B012B4303
:104930001A60802380229B012B4312011A6080237E
:10494000DB024B60184B6362294B5A68FF2A02D87E
:10495000802252005A608022264BA1691201244D08
:104960001A60002907D0606901F050FD431C58000F
:10497000C0180338FDD2E0221D490B681A4080237D
:104980005B012B431A60802380229B012B43120181
:104990001A6080235B004B600E4BA361DAE6C046D1
:1049A00050250020006CDC021BB700000080004096
:1049B0003CB0004030B00040002F685900800240F9
:1049C000008C864700C0024030800040001BB700CA
:1049D0003C800040405973075480004054B0004070
:1049E0006080004060B000406C8000406CB00040CF
:1049F0004880004048B00040014B8000C0587047DC
:104A000050250020F8B5040021481D0017000E00B5
:104A100001F0FCFC0100380001F0F8FC069B2904C1
:104A20001B0319432368002B20DB1A4B1A4DE21895
:104A300053425A4180235B019C461203174B624448
:104A40001A60174B1A601700AB689F43FBD1C02256
:104A5000231D92011A4321232660A060136023685E
:104A6000002BFCDA0823E1601360F8BD3F232268C5
:104A70001340B342D9D1A3681B051B0D8342D4D187
:104A8000EE22E368D20213408B42CED1EDE7C0465E
:104A9000001BB7000040FDBF00C0004000E0004028
:104AA00000F000408023024A9B000343D36270471A
:104AB0000080054010B5140080221B4BD2051A60FF
:104AC00000281AD00123194A1843194BDA61194AF0
:104AD00042401A62596298628022134BD2051A60D2
:104AE0001549164A1160E022D2041A60002C07D141
:104AF0008022134B12061A6010BD0D4BD861EBE7F4
:104B000063011B1B9A008023121912015B049A4255
:104B100000D30C4A0C4B1A60054B5A608022084B9C
:104B2000D2051A60E8E7C04600B00540D3C007B020
:104B3000008005402D3FF84FFCFF01000820014098
:104B400000A00540FFFFFF00042E0020AA23064A14
:104B50001B0113602F230549D360054B196053686F
:104B6000002BFCDA7047C0460040024000B0FA005B
:104B7000006002402C4B2D4A70B51A602C4A2D4B18
:104B80002D491A6014008B689C43FBD12B4D2C4E91
:104B9000B54208D2013E761BB60808CD98472300DF
:104BA0000134B342F9D1FFF7BFFD264A214B1A6009
:104BB000214A9368DB43DB01DD09002BF9D1402258
:104BC000214B224C224E9A675A671A67DA66B44222
:104BD00008D223682000002B20D00834FEF7C0FE46
:104BE000B442F6D31B4E1C4CC022A168300002F028
:104BF000F3F8A660FEF7B6FBFEF766FEFFF768F86F
:104C0000164C174EB44208D2013E361BB60808CCEB
:104C100098472B0001359E42F9D170BD0834FEF74C
:104C200091FEB442D5D3DDE700E00040BFCDFBFEEE
:104C3000FE7F3C0000F0004000C00040CC1B002084
:104C4000DC1B0020FFFFFF0100F00140BC1B002027
:104C5000CC1B00200000002000ED00E0DC1B002049
:104C6000E41B002000BEFDE7094A0300106800288D
:104C700005D00849C3188B4207D81360704706480F
:104C80000449C31810608B42F7D901204042F5E770
:104C9000F429002000000420802F002010B5FFF729
:104CA000E1FFC04610B50C0082B01900002A0AD0FE
:104CB000064B0192009302002300054801F00CFB13
:104CC0000120FFF7CFFF034B1A00F2E7343F01103A
:104CD000443F0110584701100FB400B5084883B095
:104CE00002F0DEF9049B002B07D005A91800019102
:104CF00001F012FB034802F0D3F90120FFF7B2FFE5
:104D0000743F01101449011010B50148FFF7E4FF8A
:104D1000843F01109A4200D2885470477047C046C1
:104D2000F8B557464E464546DE46E0B599460A9BDD
:104D300007009A460D9B8846934615000B9E9B07DD
:104D400010D10C9B9E420DD29D1B14000E005D44A1
:104D500022004B46013431002020B847A542F7D14C
:104D6000B0460B9E002E27D0444675195346AA1B09
:104D7000013E985D21004B46B847002EF6D1230036
:104D80002C0098460D9B9B070FD55B46E51A0C9BA4
:104D9000AB420AD94646984622004B4631002020B5
:104DA0000135B8470134A845F6D82000F0BCBB4611
:104DB000B246A946A046F8BD2C00E3E7F0B54F4641
:104DC0004646D646C0B584B098460EAB1B78129FB7
:104DD000994694460D9C109B119EBA0725D4002E2F
:104DE0004BD19C4200D3BFE001223A4092461F2C97
:104DF00000D9B8E00C9A551E302201E0202C03D0D7
:104E000001342A55A342F9D85246002A0DD0A642B1
:104E10000BD9202C44D00C9A551E302201E0202CB6
:104E20003ED001342A55B442F9D1FA064DD57A055F
:104E30003FD4002C39D10F9B102B00D179E00F9B70
:104E4000022B00D18AE030230C9A012413704B46C8
:104E5000002B3FD02D230C9A135501340C9B624636
:104E600000930397434602960194FFF759FF04B05D
:104E7000E0BCBA46B146A846F0BD012215003D404F
:104E8000AA463A422FD04A46002A02D10C323A4270
:104E900000D0013E9C42BAD21F2CABD9202E27D97C
:104EA0002024FA06DAD57A0503D4A3422DD0A642EF
:104EB0002BD00F9B102B32D0022B20D0202CCDD00A
:104EC00030220C9B1B191A700134202CC6D04B4683
:104ED000002BBFD17B070DD43B07BFD520230C9AF5
:104EE00013550134BAE79C429FD21F2C00D881E7AA
:104EF00020249AE72B230C9A13550134AEE7202C7B
:104F0000ACD00C9B1B1901343AE0631E012C92D0EB
:104F10000F9A102A2AD0022A2FD01C00D0E7BB06F5
:104F20000ED4202C9AD00C9B1A19013478231370BC
:104F3000C4E7BB060DD478230C9A01241370BFE795
:104F4000202C00D18AE758220C9B1B191A700134BF
:104F5000B4E758230C9A01241370B1E70C9A60331C
:104F600001241370ACE7202400265EE7023CBA0659
:104F7000E9D40C9A12191C00D8E70C9A92465344B3
:104F800062221A709AE7C04610B5002800D110BD01
:104F900002F03AF8FBE7C0460B0010B5002802D03B
:104FA00049681B68984710BDF0B5DE4657464E4627
:104FB0004546E0B59BB09B46249B89469846259B79
:104FC0000B900C924046424619009A4601F0DFFCD5
:104FD000002800D0D8E0012240465146774B52428B
:104FE00001F0D0FC002800D0CEE00122404651461E
:104FF000734B524201F0B0FC002800D0C4E0002204
:1050000000234046514601F0A7FC002800D0B9E13A
:10501000424653460A9209938023289ADB001A409D
:105020000E92289A1A4201D1062326930A9A099BC6
:105030001600134300D0C7E0289B002500261B055F
:1050400000D49BE100230D93269A0D9B9A4200DC2D
:105050009FE1D01A431E26938023289ADB001A432F
:105060000023002728920D93279B0024BB4200D9E0
:10507000DC1B0223289A1A400E92289A134203D06E
:105080007B427B415B421C400D9B002B07D00A9862
:1050900009992A00330001F0FEFB0A9009910022D1
:1050A00000234046514601F057FC002805D08020DF
:1050B00000068446099961440991289A414B0B9D49
:1050C00013400493269B0A9A0293099B039400922F
:1050D000019349465B4628000C9A00F08BF90400C6
:1050E000002F62D0289B220098061F23C0179843E8
:1050F000631C984649465B466530A8470D9B0025D2
:10510000DA179C18DB0F9A465440013F01E0202D2E
:1051100013D00AAA94461F23200063440A210135B4
:105120005E1901F073F93031317020000A2101F06D
:105130006DF926000400092EE9D805230693002303
:1051400004930A330393534605970B9F029312ABC4
:10515000009342465B46494638000195FFF72EFE14
:105160000E9B0400002B20D00C9BC51A279BAB4242
:105170001BD91E0022005B46494620200135B84756
:105180000134AE42F6D810E0289B42460493279B98
:1051900049460393269B0B98029353460092019332
:1051A0005B460C9A00F026F9040020001BB0F0BC0E
:1051B000BB46B246A946A046F0BDC046FFFFEF7F02
:1051C000FFFFEFFFFFF7FFFF734B099F9C4678003F
:1051D000400D604401F0EEFB704A714B01F075FB2D
:1051E000704A714B01F052FB3B03704A1B0B1A4390
:1051F00004000D00300011006D4B002201F041FB56
:105200006C4A6D4B01F061FB02000B00200029008D
:1052100001F03CFB01F0E6FB0D9001F0CBFB674A8F
:10522000674B04000D0001F050FB0022654B01F0BC
:105230002DFB01F0D7FB644A0600644B20002900D7
:1052400001F043FB040030000D000F9601F0B2FBAB
:105250005F4A604B01F039FB02000B00200029007F
:1052600001F00FFB02000B0006000F0001F02DFB08
:10527000320004000D003B003000390001F006FB55
:10528000002210901191544B2000290001F003FBE3
:105290000022524B01F0FAFA02000B002000290014
:1052A00001F0F9FA00224E4B01F0F0FA02000B0077
:1052B0002000290001F0EFFA0D00802104003200E7
:1052C0003B000020C90501F0DCFA02000B002000C1
:1052D000290001F0DBFA02000B001098119901F08F
:1052E000DAFA0022314B01F0D1FA3E4B0F9C9C467A
:1052F00064440022230501F0E8FA05000E000200D4
:105300000B000A98099901F027FB00280AD00D9B91
:105310002800013B31000D930022304B01F0BBFA15
:1053200005000E00C6270D992B0063318F42BF4147
:1053300028997F420437090500D495E6334300D10C
:1053400082E6099C284A2100284B0A9801F012FBAA
:10535000002808D000222100254B0A9801F0FCFA11
:10536000002800D070E6269B002B00D17CE60E9B27
:105370005A1E9341269AD31A269375E600230427D2
:105380000D9371E643460A9380231B065344099309
:1053900042E6002326935FE601FCFFFFFB799F5066
:1053A0001344D33FB3C8608B288AC63F0000F03F48
:1053B0000000F83F61436F63A787D23F71A379096B
:1053C0004F930A400000E03F1655B5BBB16B024059
:1053D000EF39FAFE422EE63F00002C400000244048
:1053E00000001840FF0300002D431CEBE2361A3F7B
:1053F00080842E41F0B54E46DE4657464546E0B520
:1054000097B09946209E219F229B834698460791FC
:105410000C923B0032003000390001F0B8FA00284D
:1054200000D0A9E1012230003900CA4B524201F0FC
:1054300093FA002800D0E1E0012230003900C64B89
:10544000524201F09FFA002800D0B7E0002230005D
:105450003900C24B01F096FA002800D099E00022F2
:1054600030003900BE4B01F077FA002800D090E000
:10547000002200233000390001F06EFA002800D02D
:10548000B1E000230D93249B5B0501D406239846CD
:1054900008AB9C461722002430234146624404E0B6
:1054A000013413550139202C01D00929F8D8884638
:1054B0003000390001F096FA4346DA00A94B0500A6
:1054C0009B181A685B680892099301F073FA02004E
:1054D0000B003000390001F0D4F9089A099B01F063
:1054E000F4F90A900B9101F0A1FA824601F05EFAFC
:1054F00002000B000A980B9901F0C3F900229A4BA5
:105500000A900B9101F03EFA002800D1C0E001237F
:105510009C46E244504601F049FA02000B0008980C
:10552000099901F01FFA002802D000239A4601359C
:105530004346002B6AD008AB17269C460895664464
:10554000554614E001235B4243440A2128009A4651
:1055500000F05CFF013430313719397028000A211E
:1055600000F054FF092D00D8D0E0D0460500202CD3
:10557000E8D10EAB98460323249A1340012B00D1A7
:1055800096E02023249A01930392239A43460292A1
:105590001EE0249B58460493239B00960197039397
:1055A00043460C9A029307994B46FFF7FDFC17B050
:1055B000F0BCBB46B246A946A046F0BD249B5B07A3
:1055C0000ED40322694B24990192039123990291ED
:1055D000009358464B460C9A0799FFF7A1FBE6E764
:1055E0000422634BEFE73B0032000020002101F072
:1055F00048F9012306000F000D9344E7249B039311
:10560000239B0293042301935A4BE1E7280001F006
:10561000D1F902000B003000390001F032F9524B91
:10562000002206000F0001F097F90EAB9846002803
:105630000AD10022300039004B4B01F0A3F90028B9
:1056400002D1EB0700D50135202C94D008AA94464E
:105650001723280063440A2101341E1900F0AEFE0E
:105660003031280031700A2100F0A8FE051EEBD170
:105670000323249A1340012B1BD0202C00D180E758
:105680000D9B002B35D02D224146631C0A5579E72E
:1056900000220A980B99344B01F05EF9002800D0E3
:1056A00046E75346002B51D101239C46E2443FE795
:1056B0002024239B002BE0D00D9B002B03D1249AA8
:1056C0000C33134202D0239B013B2393239BA34221
:1056D000D3D908AB9C46172230236244202C00D13A
:1056E0004FE72399013413558C42C6D0202CF8D1B2
:1056F00047E7249B5B0724D4249A2300120700D495
:1057000040E72022414601330A553BE75746089DB2
:10571000202C00D12DE7220030214046002F09D057
:105720000132B154202A00D123E7D3431B191B189F
:10573000002BF5D10EAB98462E234146541C8B54BA
:1057400082E72B224146631C0A551BE7DB0700D486
:10575000EEE6A9E7FFFFEFFFFFFFEF7F65CDCD414D
:1057600065CDCDC1884101100000E03F903F0110A0
:10577000943F0110A03F0110249B0393239B0293AD
:1057800003230193004B23E79C3F0110F0B5DE4655
:105790004E4657464546E0B59FB01C00289B9146B3
:1057A0000993C94AC94B8B4608901A60002900D159
:1057B00018E2002320789A46002800D11AE2260039
:1057C0001D005C460AE02A006F1C4B46089D210024
:1057D000A8473D0001363078002870D02528F2D146
:1057E00010239B46083B9A46043B9846023B002107
:1057F0009C46721C107816000300203BDBB2102B75
:1058000003D8B34F9B00FB589F460300303B092B46
:1058100032D900230A932A2868D0002398462E28DC
:105820003ED00300683BDBB2122B1CD8A94A9B0078
:10583000D3589F46012301321943DBE76346013207
:105840001943D7E7434601321943D3E75B46013298
:105850001943CFE7534601321943CBE780235B005E
:105860007078194301360300253BDBB2532BAAD8CD
:10587000994A9B00D3589F4600270300B800C019DF
:1058800001364000C018337830381A00303A07002B
:10589000092AF3D90A901800002398462E28C0D16F
:1058A00080237078DB0019430300303B721C092B06
:1058B00000D8A1E12A2800D1B2E11600B1E7A34641
:1058C000AA462C00D14503D801235B424B449A469B
:1058D0004B46524659460020089DA84720001FB05D
:1058E000F0BCBB46B246A946A046F0BD099B40CBE2
:1058F0000A96002E03DB50780993561C8DE7283852
:10590000014370420A9009935078561C85E7782825
:1059100000D1DFE1582800D14CE26F2800D14FE3DD
:10592000622801D100F030FC10230A009A430B9248
:10593000692801D000F0A9FC0A230C934B0500D57F
:10594000D0E10B9A802311009B0019408B461A422C
:1059500000D0A1E2802311005B0019408A461A4260
:1059600000D0B6E313005B0600D5EDE21300099901
:105970001B0601D400F076FC08C91BB2D8171A1810
:10598000424092B209919346DA0F1292002B09D14C
:10599000802310220B99DB000B4091430B91002BCD
:1059A00000D0E4E20B9A6123920600D541230EA9B0
:1059B0001F228C46DBB262440A3B5F461395A34626
:1059C00055460C9CB2460D9316000AE03033DBB20C
:1059D00001357355A74200D2EDE2202D00D1EAE255
:1059E00007002100380000F011FDCBB20929EDD9E4
:1059F0000D9A94466344DBB2EAE780239B007078FB
:105A0000194301362FE77078682800D1CDE1802353
:105A10000136194327E770786C2800D1BFE1802355
:105A20005B00194301361EE7462800D19BE107229F
:105A3000099B0491073393430A9A19000392424643
:105A400002920CC908980092019309912A004B46D2
:105A50002100FFF7CFFC01360500BCE62A006F1CD1
:105A60004B46089D21002520A84701363D00B2E69F
:105A70008B0700D4ADE1099B2A009A466B1C98461F
:105A8000534601CB21009A46089F4B46C0B2B84707
:105A90000A9B9C466544012B00D886E2089B47463A
:105AA000B04626004C4699463A00230001373100A3
:105AB0002020C847AF42F7D1A1465346340046469E
:105AC0000993013687E6C0468D570010002E00204E
:105AD000A83F0110EC3F011038400110099B04CB96
